:020000020000FC
:100000000C9409000C947B000C9486000C9408005E
:1000100018950FEF0DBF01E20EBF0FEF0DB900BB3A
:1000200001B9002701BB02B900270AB90BB90AE0E0
:10003000009369000DB303600DBB00EF00930A014C
:100040000FEF07B908B904B9002705B9D02E10E0A1
:1000500010939B0010E010939A0010E0109306029A
:1000600011E01093910011E210939000EE2408E348
:10007000DAD3F3D30ED408E3D6D3EFD301D408E315
:10008000D2D3EBD308E3CFD3E8D308E0CCD3E5D386
:1000900001E0C9D3E2D306E0C6D3DFD30EE0C3D379
:1000A000DCD30DE4CBD3D9D301E6C8D3D6D308E74C
:1000B000C5D3D3D300E2C2D3D0D303E7BFD3CDD3CC
:1000C00004E7BCD3CAD301E6B9D3C7D304E7B6D398
:1000D000C4D309E6B3D3C1D30FE6B0D3BED30EE683
:1000E000ADD3BBD303E7AAD3B8D30AE3A7D3B5D321
:1000F00078940C9491000F931F930FB70F9300EF18
:10010000602B0F910FBF1F910F9118950F931F93A5
:100110000FB70F930FE0602B0F910FBF1F910F913F
:10012000189500E210E0E8E0F2E0143619F00193CF
:100130001395FBCF55270E9452040E9452040E943F
:1001400098030D3061F00A3088F410E3010F76D384
:1001500084D3011B1AE0519F502D500FECCF523029
:1001600028F05B3018F45093070246C008E35BD3D5
:1001700074D38FD308E357D370D382D308E353D318
:100180006CD308E350D369D308E04DD366D301E0C4
:100190004AD363D306E047D360D30EE044D35DD3A4
:1001A00008E54CD35AD30DE449D357D301E646D3DF
:1001B00054D308E743D351D300E240D34ED303E7EF
:1001C0003DD34BD304E73AD348D301E637D345D3E5
:1001D00004E734D342D309E631D33FD30FE62ED31D
:1001E0003CD30EE62BD339D303E728D336D30AE327
:1001F00025D333D355279FCFE8E0F2E061E0539554
:1002000008E311D32AD345D308E30DD326D338D33B
:1002100008E309D322D308E306D31FD308E003D3AE
:100220001CD301E000D319D306E0FDD216D30EE0B3
:10023000FAD213D30E9449040EE400D30ED301E690
:10024000FDD20BD30DE6FAD208D305E6F7D205D3DB
:100250006A3029F000E3060FF1D2FFD206C001E3B5
:10026000EDD2FBD200E3EAD2F8D20AE3E7D2F5D22C
:1002700081E018D317D30E949803702F713009F1D1
:10028000703041F07D3009F002C00C94A0017A304A
:10029000C0F402C010E24BC005D304D30E949803FF
:1002A0000A3078F00D3068F4773091F17830D1F180
:1002B0007930D9F113E0179F102D71E3170F100F4C
:1002C00036C008E3B0D2C9D2E4D208E3ACD2C5D27A
:1002D000D7D208E3A8D2C1D208E3A5D2BED208E0A3
:1002E000A2D2BBD201E09FD2B8D206E09CD2B5D256
:1002F0000EE099D2B2D2CDD208E5A0D2AED20AE0B9
:10030000609F002D112DE8E0F2E0E00FF11F92CF89
:100310000C3021F00B3021F010E509C013E507C0C7
:1003200012E505C01AE4100F02C01DE4100F11936E
:10033000012F84D292D283958B3011F00C94390125
:100340000AE0609F002D112DE8E0F2E0E00FF11FC0
:1003500063956517E1F008E366D27FD29AD208E38D
:1003600062D27BD28DD208E35ED277D208E35BD231
:1003700074D208E058D271D201E055D26ED206E0B4
:1003800052D26BD20EE04FD268D20C941A01ECE636
:10039000F2E061E050910702772708E344D25DD292
:1003A00078D208E340D259D26BD208E33CD255D27E
:1003B00008E339D252D208E036D24FD201E033D22C
:1003C0004CD206E030D249D20EE02DD246D204E51E
:1003D00035D243D209E632D240D20DE62FD23DD2F9
:1003E00005E62CD23AD2062F0E94CF0304E726D28C
:1003F00034D20FE623D231D2651729F0062F0395A8
:100400000E94CF0303C001E319D227D20AE316D218
:1004100024D20E9452040E9452040E9498030D307C
:1004200061F00A3080F410E3010F08D216D2011BEC
:100430001AE0719F702D700FECCF713020F07B307F
:1004400010F4719341C008E3EED107D222D208E341
:10045000EAD103D215D208E3E6D1FFD108E3E3D114
:10046000FCD108E0E0D1F9D101E0DDD1F6D106E020
:10047000DAD1F3D10EE0D7D1F0D108E5DFD1EDD15B
:1004800004E5DCD1EAD109E6D9D1E7D10DE6D6D130
:10049000E4D105E6D3D1E1D1062F0E94CF0304E7D2
:1004A000CDD1DBD10FE6CAD1D8D1651729F0062FFF
:1004B00003950E94CF0303C001E3C0D1CED10AE36C
:1004C000BDD1CBD17727A5CF651719F063950C94D3
:1004D000CC0108E3A8D1C1D1DCD108E3A4D1BDD1BE
:1004E000CFD108E3A0D1B9D108E39DD1B6D108E0BE
:1004F0009AD1B3D101E097D1B0D106E094D1ADD17A
:100500000EE091D1AAD103E599D1A7D104E796D104
:10051000A4D10FE693D1A1D100E790D19ED100E202
:100520008DD19BD104E78AD198D109E687D195D1A5
:100530000DE684D192D105E681D18FD10AE37ED137
:100540008CD10E9452040E9452040E9498030230EF
:1005500080F0063070F40093760210E3010F6ED144
:100560007CD10E9452040E9452040E9498030D30D4
:10057000E9F008E358D171D18CD108E354D16DD1A1
:100580007FD108E350D169D108E34DD166D108E0AD
:100590004AD163D101E047D160D106E044D15DD1B9
:1005A0000EE041D15AD108E549D157D108E33BD1FA
:1005B00054D16FD108E337D150D162D108E333D1A0
:1005C0004CD108E330D149D108E02DD146D101E02A
:1005D0002AD143D106E027D140D10EE024D13DD12C
:1005E00007E52CD13AD101E629D137D109E626D148
:1005F00034D104E723D131D100E220D12ED105E35B
:100600001DD12BD100E21AD128D103E717D125D172
:1006100005E614D122D103E611D11FD10FE60ED188
:100620001CD10EE60BD119D104E608D116D103E78F
:1006300005D113D1662768B90E94630471E091E087
:10064000FF240E945204903009F002C00C94480329
:10065000ECE6F2E0072F0A9510E0E00FF11F0081B1
:100660005AE0059F002DF016F0F000910702701778
:1006700011F0739501C071E0603029F090E06627B9
:10068000FF240C94210391E06627FF240C9421039E
:10069000009176021AE0019F002DF01620F091E003
:1006A000FF240C9421030E94E103913021F00027E4
:1006B00000939A0003C009E900939A0068B94FEECD
:1006C000332740930B010FEF0A95F1F700910901D1
:1006D0000F700F3049F041E02227102F142309F446
:1006E0000AC02395440FF9CF333069F00894441FB2
:1006F00033950C946103233009F005C0323009F0C2
:1007000002C001E0E02E0E2D003071F000E00093F9
:100710009A000E945D040E9498030E9452040E9465
:1007200052040F3009F0EFCFEE24F3940C94210320
:100730004FEE332740930B010FEF0A95F1F700912D
:1007400009010F700F3049F041E02227102F1423C8
:1007500009F40AC02395440FF9CF333049F30894C4
:10076000441F33950C949A03333049F0233059F0E9
:10077000022F000F020F030F03950C94CE030AE023
:10078000020F0C94CE03303029F0313031F00FE0FD
:100790000C94CE030EE00C94CE03002708951F9313
:1007A0000A3039F010E3010F49D057D0011B1F91D7
:1007B000089501E343D051D000E340D04ED01F91C3
:1007C000089508E330D049D064D008E32CD045D058
:1007D00057D008E328D041D008E325D03ED008E028
:1007E00022D03BD001E01FD038D006E01CD035D05D
:1007F0000EE019D032D0E8E0F2E0A7E0B2E05C9180
:10080000751708F007C0072F1AE0019F002D112768
:10081000E00FF11F11E01B3029F001910FD01DD026
:100820001395F9CF089501BB0000169A000000004F
:1008300000001698000000000000089501BB179A00
:10084000000000000000169A00000000000016984A
:10085000000000000000179808950F93002700BBC8
:1008600001BB159A0000169A0000000000000FB1AD
:10087000169807FDF7CF15980FEF00BB0F9108955D
:100880008F939F939FE08CE90197F1F79F918F9150
:100890000895F6DFF5DFF4DFF3DFF2DF0895F9DF27
:1008A000F8DF0895FCDFFBDFFADFF9DFF8DFF7DFC1
:1008B000F6DFF5DFF4DFF3DF0895F4DFF3DFF2DFD7
:1008C000F1DFF0DF0895EEDFEDDFECDFEBDFEADFF5
:0C08D000E9DFE8DFE7DFE6DFE5DF0895A1
:00000001FF
