:020000020000FC
:100000000C9409000C947B000C9486000C9408005E
:1000100018950FEF0DBF01E20EBF0FEF0DB900BB3A
:1000200001B9002701BB02B900270AB90BB90AE0E0
:10003000009369000DB303600DBB00EF00930A014C
:100040000FEF07B908B904B9002705B9D02E10E0A1
:1000500010939B0010E010939A0010E0109306029A
:1000600011E01093910011E210939000EE2408E348
:1000700003D41CD437D408E3FFD318D42AD408E31C
:10008000FBD314D408E3F8D311D408E0F5D30ED48D
:1000900001E0F2D30BD406E0EFD308D40EE0ECD3AA
:1000A00005D40DE4F4D302D401E6F1D3FFD308E77D
:1000B000EED3FCD300E2EBD3F9D303E7E8D3F6D3D6
:1000C00004E7E5D3F3D301E6E2D3F0D304E7DFD3CB
:1000D000EDD309E6DCD3EAD30FE6D9D3E7D30EE6B6
:1000E000D6D3E4D303E7D3D3E1D30AE3D0D3DED32B
:1000F00078940C9491000F931F930FB70F9300EF18
:10010000602B0F910FBF1F910F9118950F931F93A5
:100110000FB70F930FE0602B0F910FBF1F910F913F
:10012000189500E210E0E8E0F2E0143619F00193CF
:100130001395FBCF55270E9481040E9481040E94E1
:10014000B4030D3061F00A3088F410E3010F9FD33F
:10015000ADD3011B1AE0519F502D500FECCF523000
:1001600028F05B3018F45093070246C008E384D3AC
:100170009DD3B8D308E380D399D3ABD308E37CD322
:1001800095D308E379D392D308E076D38FD301E0F7
:1001900073D38CD306E070D389D30EE06DD386D3AE
:1001A00008E575D383D30DE472D380D301E66FD312
:1001B0007DD308E76CD37AD300E269D377D303E722
:1001C00066D374D304E763D371D301E660D36ED3EF
:1001D00004E75DD36BD309E65AD368D30FE657D350
:1001E00065D30EE654D362D303E751D35FD30AE35A
:1001F0004ED35CD355279FCFE8E0F2E061E0539502
:1002000008E33AD353D36ED308E336D34FD361D345
:1002100008E332D34BD308E32FD348D308E02CD3E1
:1002200045D301E029D342D306E026D33FD30EE0E5
:1002300023D33CD30E9472040EE429D337D301E6C2
:1002400026D334D30DE623D331D305E620D32ED3E2
:100250006A3029F000E3060F1AD328D306C001E361
:1002600016D324D300E313D321D30AE310D31ED330
:1002700081E047D346D30E94B403702F713009F157
:10028000703041F07D3009F002C00C94A0017A304A
:10029000C0F402C010E24BC034D333D30E94B40385
:1002A0000A3078F00D3068F4773091F17830D1F180
:1002B0007930D9F113E0179F102D71E3170F100F4C
:1002C00036C008E3D9D2F2D20DD308E3D5D2EED2AC
:1002D00000D308E3D1D2EAD208E3CED2E7D208E0D5
:1002E000CBD2E4D201E0C8D2E1D206E0C5D2DED260
:1002F0000EE0C2D2DBD2F6D208E5C9D2D7D20AE0EC
:10030000609F002D112DE8E0F2E0E00FF11F92CF89
:100310000C3021F00B3021F010E509C013E507C0C7
:1003200012E505C01AE4100F02C01DE4100F11936E
:10033000012FADD2BBD283958B3011F00C943901D3
:100340000AE0609F002D112DE8E0F2E0E00FF11FC0
:1003500063956517E1F008E38FD2A8D2C3D208E312
:100360008BD2A4D2B6D208E387D2A0D208E384D23B
:100370009DD208E081D29AD201E07ED297D206E0E7
:100380007BD294D20EE078D291D20C941A01ECE692
:10039000F2E061E050910702772708E36DD286D240
:1003A000A1D208E369D282D294D208E365D27ED288
:1003B00008E362D27BD208E05FD278D201E05CD25F
:1003C00075D206E059D272D20EE056D26FD204E551
:1003D0005ED26CD209E65BD269D20DE658D266D203
:1003E00005E655D263D2062F0E94F80304E74FD2E8
:1003F0005DD20FE64CD25AD2651729F0062F03952D
:100400000E94F80303C001E342D250D20AE33FD274
:100410004DD20E9481040E9481040E94B4030D30D9
:1004200061F00A3080F410E3010F31D23FD2011B9A
:100430001AE0719F702D700FECCF713020F07B307F
:1004400010F4719341C008E317D230D24BD208E3C5
:1004500013D22CD23ED208E30FD228D208E30CD21A
:1004600025D208E009D222D201E006D21FD206E04E
:1004700003D21CD20EE000D219D208E508D216D25F
:1004800004E505D213D209E602D210D20DE6FFD15F
:100490000DD205E6FCD10AD2062F0E94F80304E72C
:1004A000F6D104D20FE6F3D101D2651729F0062F59
:1004B00003950E94F80303C001E3E9D1F7D10AE3F1
:1004C000E6D1F4D17727A5CF651719F063950C9481
:1004D000CC0108E3D1D1EAD105D208E3CDD1E6D1F0
:1004E000F8D108E3C9D1E2D108E3C6D1DFD108E0F1
:1004F000C3D1DCD101E0C0D1D9D106E0BDD1D6D184
:100500000EE0BAD1D3D103E5C2D1D0D104E7BFD137
:10051000CDD10FE6BCD1CAD100E7B9D1C7D100E235
:10052000B6D1C4D104E7B3D1C1D109E6B0D1BED1AF
:100530000DE6ADD1BBD105E6AAD1B8D10AE3A7D16A
:10054000B5D10E9481040E9481040E94B40302304C
:1005500080F0063070F40093760210E3010F97D11B
:10056000A5D10E9481040E9481040E94B4030D3031
:10057000E9F008E381D19AD1B5D108E37DD196D1D4
:10058000A8D108E379D192D108E376D18FD108E0E0
:1005900073D18CD101E070D189D106E06DD186D1C3
:1005A0000EE06AD183D108E572D180D108E364D12D
:1005B0007DD198D108E360D179D18BD108E35CD1AA
:1005C00075D108E359D172D108E056D16FD101E05D
:1005D00053D16CD106E050D169D10EE04DD166D136
:1005E00007E555D163D101E652D160D109E64FD17B
:1005F0005DD104E74CD15AD100E249D157D105E38E
:1006000046D154D100E243D151D103E740D14ED17C
:1006100005E63DD14BD103E63AD148D10FE637D1BB
:1006200045D10EE634D142D104E631D13FD103E7C2
:100630002ED13CD1662768B90E94920471E091E006
:10064000FF24BB240E947B04092F013041F0B394A6
:100650000B2D033021F4BB24D0940D2DD5B80E946E
:100660007B04092F013041F0B3940B2D033021F4AA
:10067000BB24D0940D2DD5B8903009F002C00C9455
:100680006303DD24D5B8ECE6F2E0072F0A9510E00D
:10069000E00FF11F00815AE0059F002DF016F0F0E9
:1006A00000910702701711F0739501C071E060307E
:1006B00029F090E06627FF240C94220391E066273E
:1006C000FF240C942203009176021AE0019F002D72
:1006D000F01620F091E0FF240C9422030E940A04FB
:1006E000913021F0002700939A0003C009E900939C
:1006F0009A0068B94FEE332740930B010FEF0A952C
:10070000F1F7009109010F700F3049F041E0222705
:10071000102F142309F40AC02395440FF9CF333066
:1007200069F00894441F33950C947C03233009F03E
:1007300005C0323009F002C001E0E02E0E2D00307D
:1007400079F000E000939A000E948C04CC240E946F
:10075000B4030E9481040E9481040F3009F0EECF9F
:10076000EE24F3940C94220397E08CEC0197F1F7BC
:100770000E2D013031F4C3940C2D013111F4D094BD
:10078000D5B84FEE332740930B010FEF0A95F1F7E1
:10079000009109010F700F3049F041E02227102F1E
:1007A000142309F40AC02395440FF9CF3330E1F242
:1007B0000894441F33950C94C303333049F023301D
:1007C00059F0022F000F020F030F03950C94F7034B
:1007D0000AE0020F0C94F703303029F0313031F089
:1007E0000FE00C94F7030EE00C94F7030027089534
:1007F0001F930A3039F010E3010F49D057D0011B85
:100800001F91089501E343D051D000E340D04ED072
:100810001F91089508E330D049D064D008E32CD06C
:1008200045D057D008E328D041D008E325D03ED0AA
:1008300008E022D03BD001E01FD038D006E01CD029
:1008400035D00EE019D032D0E8E0F2E0A7E0B2E017
:100850005C91751708F007C0072F1AE0019F002D63
:100860001127E00FF11F11E01B3029F001910FD08B
:100870001DD01395F9CF089501BB0000169A000012
:10088000000000001698000000000000089501BB61
:10089000179A000000000000169A000000000000F7
:1008A0001698000000000000179808950F93002785
:1008B00000BB01BB159A0000169A00000000000062
:1008C0000FB1169807FDF7CF15980FEF00BB0F91EA
:1008D00008958F939F939FE08CE90197F1F79F9183
:1008E0008F910895F6DFF5DFF4DFF3DFF2DF08958F
:1008F000F9DFF8DF0895FCDFFBDFFADFF9DFF8DF6F
:100900000895F6DFF5DFF4DFF3DFF2DFF1DFF0DF8C
:10091000EFDFEEDFEDDF0895F4DFF3DFF2DFF1DF8D
:10092000F0DF0895EEDFEDDFECDFEBDFEADFE9DF9C
:0A093000E8DFE7DFE6DFE5DF08950A
:00000001FF
